:020000040800F2
:1000000038040020A9010008C7030008BF03000846
:10001000C3030008F1010008A10B00080000000064
:10002000000000000000000000000000650800085B
:10003000F5010008000000007D04000851090008D7
:10004000C3010008C3010008C3010008C301000880
:10005000C3010008C301000891020008C3010008A1
:10006000C3010008C3010008C3010008C301000860
:10007000C3010008C3010008C3010008C301000850
:10008000C3010008C3010008C3010008000000000C
:10009000000000000000000000000000C301000894
:1000A000C3010008C3010008C3010008C301000820
:1000B000C3010008D1090008C3010008C3010008FA
:1000C000C3010008C3010008C3010008C301000800
:1000D000C3010008210A0008C30100080000000055
:1000E000C3010008C3010008C301000800000000AC
:1000F000000000000000000000000000C301000834
:1001000000000000C3010008C3010008C30100088B
:1001100000000000000000000000000000000000DF
:10012000C3010008C3010008C3010008C30100089F
:10013000C3010008000000000000000000000000F3
:10014000000000000000000000000000C3010008E3
:10015000C3010008C3010008C3010008C30100086F
:10016000C3010008C30100080000000000000000F7
:10017000000000000000000000000000000000007F
:1001800000000000C30100080000000000000000A3
:10019000C3010008DFF80CD000F018F80048004751
:1001A000810C0008380400200648804706480047B4
:1001B000FEE7FEE7FEE7FEE7FEE7FEE7FEE7FEE717
:1001C000FEE7FEE76909000895010008064C074DA7
:1001D00006E0E06840F0010394E807009847103417
:1001E000AC42F6D3FFF7DAFFA00C0008C00C000801
:1001F00000BFFEE7704710B5044603E04FF47A7085
:1002000000F006F8201EA4F10104F7D110BD000093
:1002100070B505461B4800681B49B0FBF1F0441E51
:10022000601EB0F1807F00D30FE0601E4FF0E02130
:1002300048610F214FF0FF3000F00CF900204FF023
:10024000E02188610720086100BF0021481E00F0FE
:1002500001F90E4805604FF0E020006940F0010010
:100260004FF0E021086100BF084800680028FBD17A
:100270004FF0E020006920F001004FF0E02108611C
:1002800070BD00000000002040420F00240000204C
:1002900010B5012000F00EF820B100F085F9012022
:1002A00000F002F810BD000001490860704700002E
:1002B000143C014001460020034A12680A400AB17A
:1002C000012000E000207047143C0140F0B50A46D0
:1002D00000210023002400BF3DE0012505FA01F3C1
:1002E000156805EA03049C4234D105684F000326D3
:1002F000BE40B543056015794E00B54006683543EC
:1003000005601579012D02D01579022D16D1856869
:100310004F000326BE40B543856055794E00B54079
:10032000866835438560456801268E40B543456043
:10033000456896798E40B6B235434560C5684F0032
:100340000326BE40B543C560D5794E00B540C668AA
:100350003543C560491C1029BFD3F0BDF0B500235B
:1003600000244D07ED0E02FA05F3CE1000F1200532
:1003700055F826504E07F70E0F26BE40B543CF1056
:1003800000F1200646F82750CE1000F1200555F860
:10039000265045EA0304CE1000F1200545F826401A
:1003A000F0BD0246002013690B400BB1012000E0B4
:1003B000002070470A04826170478161704700BF66
:1003C000FEE700BFFEE7704770B5002100230F2253
:1003D000C4781CB3174C246804F4E064C4F5E064EA
:1003E000C4F30721C1F10404E3B20A4144789C40FC
:1003F000E1B28478144021430C07210E0E4C05789D
:100400006155047804F01F050124AC4005786D1196
:10041000AD0005F1E025C5F8004109E0047804F0DD
:100420001F050124AC40054D0678761145F826409D
:1004300070BD00000CED00E000E400E080E100E0B1
:1004400002490143024A1160704700000000FA05AA
:100450000CED00E010B5002807DA0A07140E054A73
:1004600000F00F031B1FD45403E00A07130E024AC7
:10047000135410BD18ED00E000E400E070470000E8
:1004800029B1064A12680243044B1A6004E0034A89
:1004900012688243014B1A607047000030380240F6
:1004A00029B1064A12680243044B1A6004E0034A69
:1004B00012688243014B1A607047000044380240C2
:1004C000F0B5002100220024022500260223324F2D
:1004D0003F6807F00C0121B1042905D0082937D164
:1004E00005E02E4F076036E02D4F076033E02A4FBE
:1004F0003F1F3F68C7F38056274F3F1F3F6807F0F5
:100500003F036EB1264FB7FBF3F7DFF88CC0ACF1B9
:10051000040CDCF800C0CCF3881C07FB0CF40CE0E6
:100520001E4FB7FBF3F7DFF870C0ACF1040CDCF83A
:1005300000C0CCF3881C07FB0CF4174F3F1F3F682B
:10054000C7F301477F1C7D00B4FBF5F7076002E0AD
:10055000124F076000BF00BF0F4F3F6807F0F00168
:100560000909104F7A5C0768D74047600A4F3F6817
:1005700007F4E051890A0B4F7A5C4768D7408760DF
:10058000054F3F6807F46041490B064F7A5C4768A6
:10059000D740C760F0BD0000083802400024F400D6
:1005A00040787D011400002010B56148007838B90A
:1005B0000021604800F031FA01205D490870B6E082
:1005C0005B480078012843D15A4800F012FA5A4992
:1005D00008600846006841F64C5188420DD95648DB
:1005E000006842F21071884207D20021514800F0A1
:1005F00014FA02204E49087002E000204C490870AD
:10060000002003E000214D4A1154401C0328F9DB6F
:10061000474800780228D2D14FF41670FFF7F8FD52
:1006200001214748FFF7BDFE012802D14549087066
:1006300007E001214248FFF7B4FE10B9002041490C
:1006400008700020404908700120404908706EE0A1
:100650003748007802286AD1364800F0CAF936498E
:1006600008600021334800F0D8F93348006840F2B0
:100670002621884245D93048006840F20E61884200
:100680003FD24FF41670FFF7C3FD01212C48FFF74E
:1006900088FE01280BD12B4800784006000E29491E
:1006A00008700846007840F0010008700FE0012152
:1006B0002348FFF776FE50B9224800784006000E26
:1006C000204908700846007800F0FE0008701F48B6
:1006D0000078401C1D49087008460078082815DB82
:1006E00000200870174800781449174A1278885477
:1006F00000201449087014480078401C1249087002
:1007000004E000200A4908700E4908700E4800787D
:1007100003280CDB00200C4908700C4908700120EC
:100720000B4908700020024908700649087010BD86
:1007300029000020000400402C0000203000002090
:1007400000040240330000202B0000202A0000207B
:10075000280000202DE9F04105460E4600F070F813
:10076000002413E02F5D4FF000080BE007F080003D
:1007700010B100F03DF801E000F026F87806070E11
:1007800008F10108B8F1080FF0DB641CB442E9DBA2
:1007900000F042F8BDE8F0811CB501210846FFF7E2
:1007A0006FFE01208DF804008DF8060000908DF892
:1007B000070003208DF8050069460248FFF786FD13
:1007C0001CBD00000000024010B501210748FFF7E2
:1007D000F4FD40F23110FFF71BFD01210348FFF744
:1007E000E9FD40F2F320FFF713FD10BD00000240C9
:1007F00010B501210748FFF7E0FD40F2F320FFF7B5
:1008000007FD01210348FFF7D5FD40F23110FFF746
:10081000FFFC10BD0000024010B501210748FFF7A2
:10082000CCFD40F23110FFF7F3FC01210348FFF744
:10083000C1FD0820FFF7DFFC10BD000000000240F2
:1008400010B5FFF7D5FFFFF7BFFFFFF7D1FF01217D
:100850000348FFF7AFFD0820FFF7CDFC10BD0000F7
:1008600000000240704700000CB50020019000908D
:100870003348006840F480303149086000BF304898
:10088000006800F4003000900198401C019000982E
:1008900018B90198B0F5A04FF1D12948006800F4CB
:1008A000003010B10120009001E00020009000987D
:1008B000012844D122484030006840F0805020494F
:1008C000403108601F48006840F440401D490860FE
:1008D0001B48083000681A4908310860084600685B
:1008E00008600846006840F4805008601648091FF8
:1008F0000860081F006840F08070091F086000BF92
:100900000F48006800F000700028F9D040F2027033
:100910000E4908600A480830006820F003000849C2
:10092000083108600846006840F00200086000BF17
:1009300003480830006800F00C000828F8D10CBD0E
:10094000003802400070004019544107003C02404A
:100950000448006820B103480068401E014908604F
:10096000704700002400002010B51548006840F4CE
:100970007000134908601348006840F001001149F5
:10098000086000200F49083108600E4800680E49D1
:1009900008400C4908600D48091D0860081F0068E0
:1009A00020F48020091F0860002006490C310860EF
:1009B000FFF75AFF4FF0006001498039086010BD11
:1009C00088ED00E000380240FFFFF6FE1030002402
:1009D00010B50121044800F00FF818B101210248B8
:1009E00000F004F810BD000000040040CA43028279
:1009F00070470146486A704730B502460020002320
:100A00000024158A05EA0103958905EA010413B15A
:100A10000CB1012000E0002030BD416270470000B1
:100A200010B540F22551054800F025F820B140F2FC
:100A30002551024800F004F810BD000000100140EC
:100A400010B50022002340F66A14A14200D100BF75
:100A50000A1201249440A3B2DC43048010BD21B1EA
:100A6000828942F40052828104E082894DF6FF734C
:100A70001A408281704770B5024600240023002589
:100A8000002040F66A16B14200D100BFC1F3421502
:100A900001F01F03012606FA03F3012D02D1968906
:100AA000334006E0022D02D1168A334001E0968AD7
:100AB00033400C12012606FA04F41688344013B1B0
:100AC0000CB1012000E0002070BD00002DE9FF47BF
:100AD00005460E460024A14600BFA046B08900B1DD
:100AE00000BF2C8A24F44054F08804432C82AC8943
:100AF00041F20C608443B08831890843718908430E
:100B00000443AC81AC8A24F44074B0890443AC82C1
:100B10006846FFF7D5FC2048854202D01F48854231
:100B200002D1DDF80C9001E0DDF80890A88900F40E
:100B3000004040B109EBC90000EB091031684900E1
:100B4000B0FBF1F707E009EBC90000EB09103168D1
:100B50008900B0FBF1F76420B7FBF0F00401200935
:100B6000642101FB1078A88900F4004040B13220D4
:100B700000EBC800B0FBF1F000F00700044308E010
:100B8000322000EB08106421B0FBF1F000F00F0000
:100B900004432C81BDE8FF87001001400014014090
:100BA00000BFFEE71CB501210846FFF769FC0722DC
:100BB00009210E48FFF7D2FB07220A210B48FFF755
:100BC000CDFB02208DF8040000208DF806004FF4C4
:100BD000C060009000208DF8070003208DF805000C
:100BE00069460248FFF772FB1CBD0000000002408E
:100BF00008B54FF4A060FFF723FC25208DF8000016
:100C000001208DF8030002208DF801008DF802000C
:100C10006846FFF7D9FB08BD1FB5FFF7C3FFFFF715
:100C2000E7FF01211020FFF73BFC4FF41650009026
:100C30000020ADF80C000C20ADF80A000020ADF843
:100C40000800ADF80600ADF8040069460348FFF758
:100C50003DFF01210148FFF702FF1FBD00100140C9
:100C600002E008C8121F08C1002AFAD17047704775
:100C7000002001E001C1121F002AFBD170470000D3
:100C800008B506A000680090FFF7C6FFFFF784FDD7
:100C900003E003216846FFF75DFDFAE7A56D12004A
:100CA000C00C00080000002034000000600C0008A8
:100CB000F40C00083400002004040000700C00084C
:100CC00000BD010500000000000000000102030457
:100CD00006070809000000000102030401020304E2
:100CE00006070809000000000000000000000000E6
:040CF0000000000000
:04000005080001A945
:00000001FF
